:100000000C942A000C9447000C9447000C94470071
:100010000C9447000C9447000C9447000C94470044
:100020000C9447000C9447000C9447000C94470034
:100030000C9447000C9447000C9447000C94470024
:100040000C9447000C9447000C9447000C94470014
:100050000C94470011241FBECFE5D4E0DEBFCDBF16
:1000600010E0A0E6B0E0E2EEF1E002C005900D92F3
:10007000A036B107D9F710E0A0E6B0E001C01D92AC
:10008000A036B107E1F70E9449000C94EF000C94F0
:1000900000003F924F925F926F927F928F929F9259
:1000A000AF92BF92CF92DF92EF92FF920F931F9386
:1000B0008FEF84BB81BB8ABB28EC30E0FDEF3F2E85
:1000C00058EFEFE35E2E79E2472E48E466E0662EB5
:1000D000BFEE98EB792E8BE5882EA8E70FE4A02ED3
:1000E0001FEB912EF6E6BF2E77EFEDE6CE2E6DE7F5
:1000F000D62E99EEE92E87E0F82E6FEF0FE717E680
:1001000015BA12BA1BBA88EE93E0F9013197F1F7EC
:100110000197D9F735BA52BB5BBA88EE93E0F90183
:100120003197F1F70197D9F745BA42BB6BBA88EE20
:1001300093E0F9013197F1F70197D9F7B5BB72BA9E
:100140008BBA88EE93E0F9013197F1F70197D9F76F
:10015000B5BBA2BBABBA88EE93E0F9013197F1F7DA
:100160000197D9F795BA42BBBBBA88EE93E0F90183
:100170003197F1F70197D9F775BBA2BBCBBA88EEDF
:1001800093E0F9013197F1F70197D9F775BB52BBAD
:10019000DBBA88EE93E0F9013197F1F70197D9F7CF
:1001A000E5BA42BBFBBA88EE93E0F9013197F1F76B
:1001B0000197D9F765BB52BB0BBB88EE93E0F90101
:1001C0003197F1F70197D9F765BB42BB1BBB88EEAE
:1001D00093E0F9013197F1F70197D9F791CFF894AE
:0201E000FFCF4F
:00000001FF
